:100000000C94360A0C94670A0C94670A0C94670ADD
:100010000C94670A0C94670A0C94670A0C94670A9C
:100020000C94670A0C94670A0C94670A0C94670A8C
:100030000C94670A0C94670A0C94670A0C94670A7C
:100040000C94670A0C94670A0C94670A0C94670A6C
:100050000C94B02A0C94670A0C94670A0C94662AD4
:100060000C94670A0C94302A0C94062A0C94670AA4
:100070000C94670A0C94670A0C94670A0C94670A3C
:100080000C94670A0C94670A0C94670A0C94670A2C
:100090000C94670A0C94670A0C94670A0C94670A1C
:1000A0000C94670A0C94670A0C94670A0C94670A0C
:1000B0000C94670A0C94670A0C94670A0C94670AFC
:1000C0000C94670A0C94670A0C94670A0C94670AEC
:1000D0000C94670A0C94670A0C94670A0C94670ADC
:1000E0000C94670A0C945F1B0C94F61A0C94C51CB4
:1000F0000C94AD1C0C94AB0D0C94BD390C943D408C
:100100000C9456330C9419390C944D0D0C94280D05
:100110000C948A1C0C94991C0C94961C0C94310E13
:100120000C94883C0C94B11C0C94BC0D0C94921C47
:100130000C94A31C0C941A360C9469200C944B0E4E
:100140000C949F1C0C94F40D0C9428400C94A51B4B
:100150000C94F21B0C94DB2A0C946D1B0C948C0DEC
:100160000C94243F0C94DB0D0C94050E0C94293E4A
:100170000C94781C0C94B71C0C94943A0C940D3588
:100180000C94E71A0C948E1C0C94BF1C0C94D43362
:100190000C941D0E0C944B1B0C943C1B0C94703651
:1001A0000C94DE3B0C94BB1C0C94C91C0C94731C6B
:1001B0000C942E3B0C94B62E0C94A91C0C949630E7
:1001C0000C94193D0C946F380C94720D0C94842F80
:1001D0000C94A33700407A10F35A00A0724E18090D
:1001E0000010A5D4E80000E87648170000E40B549E
:1001F000020000CA9A3B000000E1F505000080966D
:100200009800000040420F000000A086010000009E
:10021000102700000000E803000000006400000058
:1002200000000A00000000000100000000002C7621
:10023000D888DC674F0823DFC1DFAE59E1B1B7963C
:10024000E5E3E453C63AE651997696E8E6C2842699
:10025000EB898C9B62ED407C6FFCEFBC9C9F40F275
:10026000BAA56FA5F490055A2AF75C936B6CF967F1
:100270006DC11BFCE0E40D47FEF520E6B500D0EDB6
:10028000902E0300943577050080841E080000201E
:100290004E0A000000C80C333333330F986E1283BC
:1002A0001141EF8D2114893BE65516CFFEE6DB1890
:1002B000D1844B381BF77C1D901DA4BBE424203255
:1002C00084725E228100C9F124ECA1E53D27080C6F
:1002D000205F00000000000000000000000000009F
:1002E0002020202020200020000000285050000066
:1002F00000000000000000002828FC2850FC50509E
:100300000000002078A8A0603028A8F0200000009D
:1003100048A8B050283454480000000020505078BD
:10032000A8A8906C00000040408000000000000081
:100330000000000408101010101010080400004005
:100340002010101010101020400000000020A87095
:1003500070A8200000000000202020F820202000AD
:10036000000000000000000000000040408000008D
:10037000000000F800000000000000000000000085
:1003800000000040000000081010102020404040F5
:1003900080000000708888888888887000000000CD
:1003A000206020202020207000000000708888102D
:1003B000204080F80000000070880830080888702D
:1003C000000000001030505090781018000000001D
:1003D000F88080F00808887000000000709080F0BD
:1003E0008888887000000000F890102020202020CD
:1003F0000000000070888870888888700000000005
:10040000708888887808487000000000000020008C
:10041000000000200000000000000020000000207C
:1004200020000004081020402010080400000000F4
:100430000000F80000F80000000000402010080450
:100440000810204000000000708888102020002044
:1004500000000000708898A8A8B88078000000000C
:1004600020203050507848CC00000000F048487000
:10047000484848F0000000007888808080808870BC
:1004800000000000F0484848484848F000000000DC
:10049000F8485070504048F800000000F84850708C
:1004A000504040E000000000384880809C88483080
:1004B00000000000CC484878484848CC00000000C4
:1004C000F8202020202020F8000000007C101010D0
:1004D00010101090E0000000EC485060505048ECC4
:1004E00000000000E0404040404044FC00000000AC
:1004F000D8D8D8D8A8A8A8A800000000DC48686808
:10050000585848E8000000007088888888888870FB
:1005100000000000F0484870404040E0000000004B
:100520007088888888E8987018000000F048487043
:10053000504848EC0000000078888060100888F07F
:1005400000000000F8A820202020207000000000FB
:10055000CC4848484848483000000000CC48485043
:100560005030202000000000A8A8A8705050505023
:1005700000000000D8505020205050D8000000004B
:10058000D85050202020207000000000F89010204B
:10059000204048F800000038202020202020202083
:1005A000380000404040202010101008000000706B
:1005B00010101010101010107000002050000000DB
:1005C000000000000000000000000000000000002B
:1005D00000FC0020000000000000000000000000FF
:1005E000000000304838483C00000000C040407027
:1005F000484848700000000000000038484040387B
:1006000000000000180808384848483C0000000076
:100610000000003048784038000000001C2020789E
:1006200020202078000000000000003C4830407886
:1006300044380000C0404070484848EC00000000CA
:10064000200000602020207000000000100000301A
:100650001010101010E00000C040405C507048ECDA
:1006600000000000E0202020202020F800000000F2
:10067000000000F0A8A8A8A800000000000000F0FA
:10068000484848EC0000000000000030484848306E
:1006900000000000000000F04848487040E0000002
:1006A0000000003848484838081C0000000000D806
:1006B000604040E000000000000000784030087812
:1006C0000000000000202070202020180000000002
:1006D000000000D84848483C00000000000000EC42
:1006E0004850302000000000000000A8A8705050C2
:1006F00000000000000000D8502050D8000000008A
:10070000000000EC4850302020C0000000000078BD
:100710001020207800000018101010201010101069
:100720001800101010101010101010101010006091
:100730002020201020202020600040A4180000006D
:100740000000000000001010205F0000000000000A
:100750000000000000000000000000000000000099
:100760000000000000000000000000000000070082
:100770000F800F800F800F800F80070007000000A0
:100780000000070007000700000000000E380E38C8
:100790000E380E3806300000000000000000000097
:1007A0000000000000000000000000000C300C30D1
:1007B0000C307FFE7FFE0C300C300C300C307FFE96
:1007C0007FFE0C300C300C30000000000240024074
:1007D0000FF81FF81A401A401FF00FF8025802587D
:1007E0001FF81FF00240024000000000000000005F
:1007F0000E100E300E7000E001C0038007000E7076
:100800000C700870000000000000000000000F00E5
:100810001980198019800F000F080F9819F818F027
:1008200018E019F00F980000000000000000070019
:10083000070007000E00000000000000000000009C
:10084000000000000000000000000000000000F0B8
:1008500001C0038007000E000E000E000E0007000E
:10086000038001C000F000000000000000000F0045
:10087000038001C000E0007000700070007000E0B4
:1008800001C003800F000000000000000000018094
:100890001188099007E007E03FFC3FFC07E007E014
:1008A0000990118801800000000000000000000095
:1008B00000000180018001800FF00FF001800180B5
:1008C00001800000000000000000000000000000A7
:1008D0000000000000000000000000000000000018
:1008E0000700070007000E000000000000000000E5
:1008F00000000000000000001FF81FF800000000CA
:1009000000000000000000000000000000000000E7
:1009100000000000000000000000000000000000D7
:1009200007000700070000000000000000000002B0
:100930000006000E001C0038007000E001C00380BB
:1009400007000E001C0000000000000000000FF077
:100950001C381C781CF81CF81DB81DB81F381F382F
:100960001E381C380FF0000000000000000001805D
:10097000018003801F801F80038003800380038029
:10098000038003801FF000000000000000000FE063
:100990001C701C380038007000E001C003800700A4
:1009A0000E381C381FF800000000000000000FE0A7
:1009B0001C701C380038007003C003C00070003881
:1009C0001C381C700FE0000000000000000000E078
:1009D00001E003E006E00CE018E01FF81FF800E07B
:1009E00000E000E003F800000000000000001FF835
:1009F0001C001C001C001C001FE01FF000780038C9
:100A00001C381C700FE0000000000000000003E034
:100A100007000E001C001C001FF01FF81C381C38BB
:100A20001C381C380FF000000000000000001FFC04
:100A30001C1C1C1C1C1C001C0038007000E001C0A9
:100A400003800380038000000000000000000FF01E
:100A50001C381C381C381F3807E007E01CF81C380D
:100A60001C381C380FF000000000000000000FF0E0
:100A70001C381C381C381C381FF80FF80038003898
:100A8000007000E007C0000000000000000000004F
:100A900000000380038003800000000003800380C7
:100AA00003800000000000000000000000000000C3
:100AB00000000380038003800000000003800380A7
:100AC000038007000000000000000000007000E04C
:100AD00001C0038007000E001C001C000E00070070
:100AE000038001C000E00070000000000000000072
:100AF000000000003FFC3FFC000000003FFC3FFC0A
:100B00000000000000000000000000001C000E00BB
:100B10000700038001C000E00070007000E001C029
:100B2000038007000E001C000000000003C00FF04F
:100B30001E7818380038007000E001C001C00000C5
:100B4000000001C001C001C0000000000FF81C1C23
:100B50001C1C1C1C1C1C1CFC1CFC1CFC1CFC1C0071
:100B60001C001C001FF007F800000000000003C07C
:100B700007E00E701C381C381C381C381FF81C3855
:100B80001C381C381C3800000000000000001FF05A
:100B90000E380E380E380E380FF00FF00E380E38B3
:100BA0000E380E381FF0000000000000000007F0B3
:100BB0000E381C381C001C001C001C001C001C00F3
:100BC0001C380E3807F000000000000000001FE095
:100BD0000E700E380E380E380E380E380E380E38AD
:100BE0000E380E701FE000000000000000001FF82B
:100BF0000E180E080E000E300FF00FF00E300E0023
:100C00000E080E181FF800000000000000001FF87A
:100C10000E180E080E000E300FF00FF00E300E0002
:100C20000E000E001F00000000000000000007F092
:100C30000E381C381C381C001C001C001CF81C380A
:100C40001C380E3807F800000000000000001C707F
:100C50001C701C701C701C701FF01FF01C701C702E
:100C60001C701C701C7000000000000000000FE0F1
:100C7000038003800380038003800380038003805C
:100C8000038003800FE0000000000000000001FC72
:100C90000070007000700070007000703870387064
:100CA000387038700FE000000000000000001E38AF
:100CB0000E380E700EE00FC00F800F800FC00EE0D8
:100CC0000E700E381E3800000000000000001F00EB
:100CD0000E000E000E000E000E000E000E000E089C
:100CE0000E180E381FF800000000000000001C1C49
:100CF0001E3C1F7C1FFC1FFC1DDC1C9C1C1C1C1CA8
:100D00001C1C1C1C1C1C00000000000000001C1C03
:100D10001C1C1E1C1F1C1F9C1DDC1CFC1C7C1C3C6A
:100D20001C1C1C1C1C1C000000000000000003E038
:100D300007F00E381C1C1C1C1C1C1C1C1C1C1C1C26
:100D40000E3807F003E000000000000000001FF074
:100D50000E380E380E380E380FF00FF00E000E0061
:100D60000E000E001F00000000000000000003E065
:100D70000F780E381C1C1C1C1C1C1C1C1C7C1CFC16
:100D80000FF80FF8003800FC0000000000001FF012
:100D90000E380E380E380E380FF00FF00E700E3879
:100DA0000E380E381E3800000000000000000FF062
:100DB0001C381C381C381C000FE007F000381C38A9
:100DC0001C381C380FF000000000000000001FFC61
:100DD00019CC11C401C001C001C001C001C001C0D3
:100DE00001C001C007F000000000000000001C70FE
:100DF0001C701C701C701C701C701C701C701C7093
:100E00001C701C700FE000000000000000001C704F
:100E10001C701C701C701C701C701C701C701C7072
:100E20000EE007C0038000000000000000001C1C52
:100E30001C1C1C1C1C1C1C1C1C9C1C9C1C9C0FF8A3
:100E40000FF80770077000000000000000001C7021
:100E50001C701C700EE007C00380038007C00EE00A
:100E60001C701C701C7000000000000000001C7052
:100E70001C701C701C701C700EE007C00380038087
:100E8000038003800FE000000000000000001FF856
:100E90001C381838107000E001C0038007000E08ED
:100EA0001C181C381FF8000000000000000007F0AC
:100EB00007000700070007000700070007000700FA
:100EC0000700070007F0000000000000000010000D
:100ED00018001C000E000700038001C000E0007035
:100EE0000038001C0007000000000000000007F0B0
:100EF0000070007000700070007000700070007072
:100F00000070007007F0000000000000018003C0C6
:100F100007E00E701C380000000000000000000018
:100F200000000000000000000000000000000000C1
:100F300000000000000000000000000000000000B1
:100F40000000000000007FFF7FFF000000001C0089
:100F50001C00070007000000000000000000000067
:100F60000000000000000000000000000000000081
:100F70000000000000000FE0007000700FF01C7017
:100F80001C701C700FD800000000000000001E0044
:100F90000E000E000E000FF00E380E380E380E3810
:100FA0000E380E381BF000000000000000000000AA
:100FB0000000000000000FE01C701C701C001C00F2
:100FC0001C701C700FE0000000000000000000F822
:100FD0000070007000700FF01C701C701C701C7092
:100FE0001C701C700FD80000000000000000000002
:100FF0000000000000000FE01C701C701FF01C00BF
:101000001C701C700FE0000000000000000003E0F6
:1010100007700770070007001FE01FE007000700C8
:10102000070007001FC000000000000000000000D3
:101030000000000000000FD81C701C701C701C7099
:101040000FF007F000701C700FE0000000001E00A1
:101050000E000E000E000EF00F380F380E380E384E
:101060000E380E381E38000000000000000001C0DD
:1010700001C001C000000FC001C001C001C001C01B
:1010800001C001C00FF80000000000000000007067
:1010900000700070000003F00070007000700070BD
:1010A000007000701C700CF007E0000000001E00D3
:1010B0000E000E000E000E380E700EE00FC00EE097
:1010C0000E700E381E3800000000000000000FC037
:1010D00001C001C001C001C001C001C001C001C008
:1010E00001C001C00FF80000000000000000000077
:1010F0000000000000001FF81C9C1C9C1C9C1C9CF9
:101100001C9C1C9C1C9C00000000000000000000B7
:101110000000000000001FE01C701C701C701C70A0
:101120001C701C701C70000000000000000000001B
:101130000000000000000FE01C701C701C701C7090
:101140001C701C700FE00000000000000000000098
:101150000000000000001BF00E380E380E380E386C
:101160000E380FF00E000E001F00000000000000FF
:101170000000000000001FB038E038E038E038E040
:1011800038E01FE000E000E001F000000000000097
:101190000000000000001EF00FF80F380E000E00D7
:1011A0000E000E001F000000000000000000000004
:1011B0000000000000000FE01C301C300F8003E036
:1011C000187018700FE00000000000000000000020
:1011D0000100030007001FF00700070007000700D9
:1011E0000770077003E0000000000000000000002E
:1011F0000000000000001C701C701C701C701C7033
:101200001C701C700FD800000000000000000000DF
:101210000000000000001C701C701C701C701C7012
:101220000EE007C003800000000000000000000086
:101230000000000000001C1C1C1C1C1C1C9C1C9C96
:101240000FF80770077000000000000000000000A9
:101250000000000000001CE01CE00FC007800780B9
:101260000FC01CE01CE000000000000000000000B7
:101270000000000000000E380E380E380E380E3810
:1012800007F003E000E001C01F8000000000000044
:101290000000000000001FE018E011C003800700FC
:1012A0000E201C601FE0000000000000000001F89C
:1012B00003800380038007001C001C0007000380DC
:1012C0000380038001F800000000000001C001C09D
:1012D00001C001C001C001C001C001C001C001C006
:1012E00001C001C001C001C00000000000001F805B
:1012F00001C001C001C000E00038003800E001C0BA
:1013000001C001C01F8000000000000000001F1C81
:101310003B9C39DC38F800000000000000000000B1
:1013200000000000000000000000005EBCE2613F21
:10133000DD83C29C7E20A3FD1F41009D23BE46DBB2
:1013400065F88C11AF32CA57E974000021002400FF
:1013500027002A002D0030003300010100000401A5
:1013600007010A0100000A0B02090C0D0E08070311
:101370000401000000000000000000000000000068
:10138000000000000000000000000000000000005D
:10139000121110000000000000000000000000001A
:1013A00000000000000000000000000020002300FA
:1013B000260029002C002F0032000001000003014C
:1013C0000601090101021020200808102040102009
:1013D00040800201020108040201010204081020F9
:1013E00040808040201008040201800402018040F7
:1013F0002010080402010804020101020408102060
:1014000040800102040810204080000022002500D6
:1014100028002B002E0031003400020100000501DD
:1014200008010B0105050505070508080808020263
:1014300002020A0A0808040404040101010101016E
:1014400001010303030303030303040707070C0C51
:101450000C0C0C0C0C0C0202020206060606060618
:1014600006060B0B0B0B0B0B0B0BDB2A11241FBE01
:10147000CFEFD1E2DEBFCDBF00E00CBF13E0A0E0B4
:10148000B2E0EAE1F1E900E00BBF02C007900D9283
:10149000A830B107D9F724E0A8E0B3E001C01D925D
:1014A000AD3CB207E1F71AE0C6E3DAE000E006C0BF
:1014B00021970109802FFE010E945E46C533D107A6
:1014C00080E00807A9F70E94482C0C948B480C94E4
:1014D0000000483009F44CC118F4413041F008953F
:1014E000403109F46CC1413109F46CC10895909107
:1014F0009F04943009F014C1E091A804F091A9046C
:101500009091B204813009F007C18081982B9083BB
:10151000E091AA04F091AB0490818091B30480958E
:1015200089238083E091AA04F091AB04808190919B
:10153000B304892B8083E091A804F091A9048091E1
:10154000B204908167FFFCC0892B8083E091AA04DC
:10155000F091AB0490818091B304809589238083BE
:10156000E091AA04F091AB0480819091B304892B9F
:101570008083E091A804F091A9048091B204908145
:1015800066FFE1C0892B8083E091AA04F091AB044F
:1015900090818091B304809589238083E091AA048F
:1015A000F091AB0480819091B304892B8083E0910A
:1015B000A804F091A9048091B204908165FFC6C08F
:1015C000892B8083E091AA04F091AB0490818091F3
:1015D000B304809589238083E091AA04F091AB0441
:1015E00080819091B304892B8083E091A804F091CD
:1015F000A9048091B204908164FFABC0892B8083E1
:10160000E091AA04F091AB0490818091B30480959D
:1016100089238083E091AA04F091AB0480819091AA
:10162000B304892B8083E091A804F091A9048091F0
:10163000B204908163FF90C0892B8083E091AA045B
:10164000F091AB0490818091B304809589238083CD
:10165000E091AA04F091AB0480819091B304892BAE
:101660008083E091A804F091A9048091B204908154
:1016700062FF75C0892B8083E091AA04F091AB04CE
:1016800090818091B304809589238083E091AA049E
:10169000F091AB0480819091B304892B8083E09119
:1016A000A804F091A9048091B204908161FF5AC00E
:1016B000892B8083E091AA04F091AB049081809102
:1016C000B304809589238083E091AA04F091AB0450
:1016D00080819091B304892B8083E091A804F091DC
:1016E000A9048091B204908160FF3FC0892B808360
:1016F000E091AA04F091AB0490818091B3048095AD
:1017000089238083E091AA04F091AB0480819091B9
:10171000B304892B80830895808190959823F7CE18
:10172000E091A004F091A1049091AE04813021F4E5
:101730008081982B9083FFCE808190959823FACF5B
:101740008095892302CF809589231DCF8095892399
:1017500038CF8095892353CF809589236ECF80958C
:10176000892389CF80958923A4CF80958923BFCFF2
:1017700082B9E091A204F091A30490818091AF041A
:10178000809589238083E091A204F091A304808155
:101790009091AF04892B808362B9E091A204F0910B
:1017A000A30490818091AF04809589238083E09188
:1017B000A204F091A30480819091AF04AACF82B9D2
:1017C00068B9EBCFA59894B3482F082E000C550BA1
:1017D0009A01220F331F2072292B24BB9091020102
:1017E000977E90930201909102019A01E3E0359572
:1017F0002795EA95E1F72871292B209302019EB1E4
:10180000947C9EB99EB19A01220F331F220F331F81
:1018100020738370282B55954795559547954870AB
:10182000240F292B2EB9E091AC04F091AD049081E6
:101830008091B404809589238083E091AC04F09179
:10184000AD0480819091B404892B8083E091AC0435
:10185000F091AD0490818091B404809589238083B8
:10186000E091A404F091A50490818091B00480954A
:1018700089238083A59844B3262F062E000C330BB2
:10188000C901880F991F8072842B84BB809102014B
:10189000877E8093020140910201C90153E0959532
:1018A00087955A95E1F78871842B809302018EB158
:1018B000847C8EB94EB1C901880F991F880F991F7A
:1018C00080736370682B359527953595279528701B
:1018D000620F642B6EB9E091A204F091A304908191
:1018E0008091AF04809589238083E091A204F091D8
:1018F000A30480819091AF04892B8083E091A4049C
:10190000F091A50480819091B00403CF682F80915D
:101910009E0441E0813061F0E091A004F091A104C7
:1019200080819091AE0490959823908340919E047D
:1019300080E00C94690A682F80919E04813071F0D8
:10194000E091A004F091A10490818091AE04982BC5
:10195000908340919E0480E00C94690A41E081E00C
:10196000FBCFCF9390919E04913071F0E091A00451
:10197000F091A10490812091AE04922B908340912C
:101980009E04CF910C94690AC62F682F41E081E034
:101990000E94690A40919E046C2F81E0F2CFCF93A0
:1019A000DF93D62FC72F0E94860C6D2F8C2FDF91CF
:1019B000CF910C94B10CCF92DF92EF92FF920F93E4
:1019C0001F93CF93DF938C01F62EE72EEA01D22EE0
:1019D000C32E80919404813089F480919904909170
:1019E0009A049C01201B310B841B950BCD2DDC2D03
:1019F000D22EC32E062F172FF82EE92EE0919D042C
:101A0000E250ED3108F047C1F0E08827E55FF24F82
:101A10008F4F0C945E464D0D4B0E720D720D8C0D5A
:101A20004B0E280D310EAB0D4B0EBC0DBC0DDB0D5E
:101A3000DB0D4D0D310E050E4D0DBC0D310E720D31
:101A4000F40D4B0E310E310E310E310E1D0E310ED6
:101A5000612F70E082E00E94CF0CB80183E00E9409
:101A6000CF0C6D2F70E084E00E94CF0CBE0185E0AA
:101A70000E94CF0C6E2D70E086E00E94CF0C6F2D7F
:101A80007E2D87E00E94CF0C6C2D70E088E00E94D4
:101A9000CF0C6D2D7C2D89E018C07C2F6627600F40
:101AA000711F84E40E94CF0C6F2D7E2D85E40E946F
:101AB000CF0C6D2D7C2D86E40E94CF0CB8018EE4F6
:101AC0000E94CF0C6F2D7E2D8FE40E94CF0C82E2FE
:101AD000DF91CF911F910F91FF90EF90DF90CF900A
:101AE0000C94860CB80180E20E94CF0C6F2D7E2DE5
:101AF00081E20E94CF0CB80180E50E94CF0C6F2DCF
:101B00007E2D82E50E94CF0CBE0181E50E94CF0CA4
:101B10006D2D7C2D83E5D9CF70E060E082E00E94DE
:101B2000CF0CB80183E00E94CF0C70E060E084E04D
:101B30000E94CF0CBE0185E00E94CF0C70E060E0F7
:101B400086E00E94CF0C6F2D7E2D87E00E94CF0C87
:101B500070E060E09BCF8AE20E94860C802F0E949A
:101B60009B0C8C2F0E949B0C8BE20E94860C8F2D6D
:101B70000E949B0C8D2D1CC08AE20E94860C8E2D2B
:101B80000E949B0C8F2D0E949B0C8C2D0E949B0C05
:101B90008D2D0E949B0C8BE20E94860C812F0E944F
:101BA0009B0C802F0E949B0C8D2F0E949B0C8C2FD6
:101BB0000E949B0C40C07C2F6627602B712B86E413
:101BC0000E94CF0C6D2D7C2D87E40E94CF0C6F2DD1
:101BD0007E2D88E40E94CF0CB80180E20E94CF0CD9
:101BE0006F2D7E2D81E271CFBE0186E30E94CF0C66
:101BF000B80187E30E94CF0C6D2D7C2D88E30E94F5
:101C0000CF0C6F2D7E2D89E3E5CF8AE20E94860CF2
:101C1000602F812F0E94B10C6C2F8D2F0E94B10C70
:101C20008BE20E94860C6F2D8E2D0E94B10C6D2DC3
:101C30008C2D0E94B10C8CE24BCF6F2D7E2D82E05B
:101C40000E94CF0CB80183E00E94CF0C6D2D7C2D3B
:101C500086E00E94CF0CBE0187E00E94CF0C8FE08F
:101C600037CF8AE20E94860C812F0E949B0C802F26
:101C70000E949B0C8D2F0E949B0C8C2F0E949B0C12
:101C80008BE20E94860C8E2D0E949B0C8F2D0E9451
:101C90009B0C8C2D6DCFDF91CF911F910F91FF90F9
:101CA000EF90DF90CF900895409195045091960465
:101CB0008091990490919A0420919404211107C075
:101CC0009C0170E060E090E080E00C94DB0C9A01F5
:101CD000AC01F7CF8F929F92AF92BF92CF92DF92DB
:101CE000EF92FF920F931F936A017B0182B9CB01A0
:101CF000BA0120E130E040E050E00E948845812CAC
:101D0000912C540182169306A406B5060CF066C207
:101D1000E091A204F091A30490818091AF0480959A
:101D200089238083E091A204F091A30480819091A3
:101D3000AF04892B8083E091A204F091A3049081E9
:101D40008091AF04809589238083E091A204F09173
:101D5000A30480819091AF04892B8083E091A20439
:101D6000F091A30490818091AF04809589238083B2
:101D7000E091A204F091A30480819091AF04892B9B
:101D80008083E091A204F091A30490818091AF043C
:101D9000809589238083E091A204F091A30480813F
:101DA0009091AF04892B8083E091A204F091A30469
:101DB00090818091AF04809589238083E091A20473
:101DC000F091A30480819091AF04892B8083E091EE
:101DD000A204F091A30490818091AF04809589239F
:101DE0008083E091A204F091A30480819091AF04DC
:101DF000892B8083E091A204F091A30490818091CB
:101E0000AF04809589238083E091A204F091A3041C
:101E100080819091AF04892B8083E091A204F0919E
:101E2000A30490818091AF04809589238083E09101
:101E3000A204F091A30480819091AF04892B808348
:101E4000E091A204F091A30490818091AF04809569
:101E500089238083E091A204F091A3048081909172
:101E6000AF04892B8083E091A204F091A3049081B8
:101E70008091AF04809589238083E091A204F09142
:101E8000A30480819091AF04892B8083E091A20408
:101E9000F091A30490818091AF0480958923808381
:101EA000E091A204F091A30480819091AF04892B6A
:101EB0008083E091A204F091A30490818091AF040B
:101EC000809589238083E091A204F091A30480810E
:101ED0009091AF04892B8083E091A204F091A30438
:101EE00090818091AF04809589238083E091A20442
:101EF000F091A30480819091AF04892B8083E091BD
:101F0000A204F091A30490818091AF04809589236D
:101F10008083E091A204F091A30480819091AF04AA
:101F2000892B8083E091A204F091A3049081809199
:101F3000AF04809589238083E091A204F091A304EB
:101F400080819091AF04892B8083E091A204F0916D
:101F5000A30490818091AF04809589238083E091D0
:101F6000A204F091A30480819091AF04892B808317
:101F7000E091A204F091A30490818091AF04809538
:101F800089238083E091A204F091A3048081909141
:101F9000AF04892B8083E091A204F091A304908187
:101FA0008091AF04809589238083E091A204F09111
:101FB000A30480819091AF04892B8083E091A204D7
:101FC000F091A30490818091AF0480958923808350
:101FD000E091A204F091A30480819091AF04892B39
:101FE0008083E091A204F091A30490818091AF04DA
:101FF000809589238083E091A204F091A3048081DD
:102000009091AF04892B8083E091A204F091A30406
:1020100090818091AF04809589238083E091A20410
:10202000F091A30480819091AF04892B8083E0918B
:10203000A204F091A30490818091AF04809589233C
:102040008083E091A204F091A30480819091AF0479
:10205000892B8083E091A204F091A3049081809168
:10206000AF04809589238083E091A204F091A304BA
:1020700080819091AF04892B8083E091A204F0913C
:10208000A30490818091AF04809589238083E0919F
:10209000A204F091A30480819091AF04892B8083E6
:1020A000E091A204F091A30490818091AF04809507
:1020B00089238083E091A204F091A3048081909110
:1020C000AF04892B8083E091A204F091A304908156
:1020D0008091AF04809589238083E091A204F091E0
:1020E000A30480819091AF04892B8083E091A204A6
:1020F000F091A30490818091AF048095892380831F
:10210000E091A204F091A30480819091AF04892B07
:102110008083E091A204F091A30490818091AF04A8
:10212000809589238083E091A204F091A3048081AB
:102130009091AF04892B8083E091A204F091A304D5
:1021400090818091AF04809589238083E091A204DF
:10215000F091A30480819091AF04892B8083E0915A
:10216000A204F091A30490818091AF04809589230B
:102170008083E091A204F091A30480819091AF0448
:10218000892B8083E091A204F091A3049081809137
:10219000AF04809589238083E091A204F091A30489
:1021A00080819091AF04892B8083E091A204F0910B
:1021B000A30490818091AF04809589238083E0916E
:1021C000A204F091A30480819091AF04892B8083B5
:1021D0008FEF881A980AA80AB80A94CDD701C601C9
:1021E0008F709927AA27BB27892B8A2B8B2BE9F184
:1021F000C701B60120E130E040E050E00E94884590
:102200008B019C0140E050E0BA0104171507260736
:1022100037075CF1E091A204F091A30490818091D2
:10222000AF04809589238083E091A204F091A304F8
:1022300080819091AF04892B8083E091A204F0917A
:10224000A30490818091AF04809589238083E091DD
:10225000A204F091A30480819091AF04892B808324
:102260004F5F5F4F6F4F7F4FD0CF1F910F91FF9008
:10227000EF90DF90CF90BF90AF909F908F90089598
:102280008F929F92AF92BF92CF92DF92EF92FF9286
:102290000F931F9369017A0182B968B9CA01B90124
:1022A00020E130E040E050E00E948845812C912CF4
:1022B000540182169306A406B5060CF036C1E091CF
:1022C000A204F091A30490818091AF0480958923AA
:1022D0008083E091A204F091A30480819091AF04E7
:1022E000892B8083E091A204F091A30490818091D6
:1022F000AF04809589238083E091A204F091A30428
:1023000080819091AF04892B8083E091A204F091A9
:10231000A30490818091AF04809589238083E0910C
:10232000A204F091A30480819091AF04892B808353
:10233000E091A204F091A30490818091AF04809574
:1023400089238083E091A204F091A304808190917D
:10235000AF04892B8083E091A204F091A3049081C3
:102360008091AF04809589238083E091A204F0914D
:10237000A30480819091AF04892B8083E091A20413
:10238000F091A30490818091AF048095892380838C
:10239000E091A204F091A30480819091AF04892B75
:1023A0008083E091A204F091A30490818091AF0416
:1023B000809589238083E091A204F091A304808119
:1023C0009091AF04892B8083E091A204F091A30443
:1023D00090818091AF04809589238083E091A2044D
:1023E000F091A30480819091AF04892B8083E091C8
:1023F000A204F091A30490818091AF048095892379
:102400008083E091A204F091A30480819091AF04B5
:10241000892B8083E091A204F091A30490818091A4
:10242000AF04809589238083E091A204F091A304F6
:1024300080819091AF04892B8083E091A204F09178
:10244000A30490818091AF04809589238083E091DB
:10245000A204F091A30480819091AF04892B808322
:10246000E091A204F091A30490818091AF04809543
:1024700089238083E091A204F091A304808190914C
:10248000AF04892B8083E091A204F091A304908192
:102490008091AF04809589238083E091A204F0911C
:1024A000A30480819091AF04892B8083E091A204E2
:1024B000F091A30490818091AF048095892380835B
:1024C000E091A204F091A30480819091AF04892B44
:1024D0008083E091A204F091A30490818091AF04E5
:1024E000809589238083E091A204F091A3048081E8
:1024F0009091AF04892B8083E091A204F091A30412
:1025000090818091AF04809589238083E091A2041B
:10251000F091A30480819091AF04892B80838FEF89
:10252000881A980AA80AB80AC4CED701C6018F70C3
:102530009927AA27BB27892B8A2B8B2B51F1C701FF
:10254000B60120E130E040E050E00E9488458B0178
:102550009C0140E050E0BA01041715072607370731
:10256000C4F0E091A204F091A30490818091AF04A3
:10257000809589238083E091A204F091A304808157
:102580009091AF04892B80834F5F5F4F6F4F7F4FD8
:10259000E3CF1F910F91FF90EF90DF90CF90BF900E
:1025A000AF909F908F9008950F931F93CF93DF93D9
:1025B000FC01EA0157FF05C0E40FF51FD195C19555
:1025C000D109A091A404B091A5048C919091B0047C
:1025D000909598239C93AF014C0F5D1F9B01CF01F9
:1025E0000E94DB0C80919E04803121F5E091A004D3
:1025F000F091A10480819091AE04892B80839E018B
:10260000DD0F440B550B6091910470E080919004B4
:1026100090E00E944011E091A404F091A504808113
:102620009091B004892B8083DF91CF911F910F91FE
:102630000C94540E8830C9F49091910480919004C8
:10264000981313C0E091A004F091A10480819091AF
:10265000AE04892B8083AE01DD0F660B770B809172
:10266000900490E00E946A0ED6CF10E000E06091E6
:102670009104809190040E94B10C0F5F1F4FC0170E
:10268000D107ACF7C8CF2F923F924F925F926F92D3
:102690007F928F929F92AF92BF92CF92DF92EF92F2
:1026A000FF920F931F93CF93DF9300D000D01F9220
:1026B0001F92CDB7DEB78C014B017901481759073E
:1026C0002CF4982F812F8A01492F582FE814F904F0
:1026D0002CF4982D892D4701E92EF82E9A01201B04
:1026E000310B38872F83253031050CF451C0C701D9
:1026F00088199909853091050CF44AC09C013595DB
:1027000027953A832983D12CC12C2F80388434E03B
:10271000231A3108280182E0480E511C6F8078840A
:1027200092E0691A710858012FEFA21AB20AC40187
:1027300001969C838B839701215031093E832D8321
:10274000C114D10499F031E0C316D104D1F14F8105
:102750005885B4016C0D7D1DC8010E94D4124F81B3
:102760005885B7016C197D09C80108C0A101B401E1
:10277000C2010E94D412A101B701C2010E94D41269
:102780008FEFC81AD80A29813A812C153D05C4F665
:1027900028960FB6F894DEBF0FBECDBFDF91CF9164
:1027A0001F910F91FF90EF90DF90CF90BF90AF906F
:1027B0009F908F907F906F905F904F903F902F9061
:1027C0000895A3016B817C81C5010E94D412A301ED
:1027D0006D817E81C501D2CF0F931F93CF93DF937D
:1027E000FC01EA0157FF05C0640F751FD195C19523
:1027F000D109A091A404B091A5048C919091B0044A
:10280000909598239C939B012C0F3D1FAF01CF0106
:102810000E94DB0C80919E04803121F5E091A004A0
:10282000F091A10480819091AE04892B80839E0158
:10283000DD0F440B550B6091910470E08091900482
:1028400090E00E944011E091A404F091A5048081E1
:102850009091B004892B8083DF91CF911F910F91CC
:102860000C94540E8830C9F4909191048091900496
:10287000981313C0E091A004F091A104808190917D
:10288000AE04892B8083AE01DD0F660B770B809140
:10289000900490E00E946A0ED6CF10E000E06091B4
:1028A0009104809190040E94B10C0F5F1F4FC017DC
:1028B000D107ACF7C8CF682F892F0C94B10CCF93F8
:1028C000DF93FC01C0E9D4E0AC89BD898C9198A16B
:1028D000909598239C939B01AF01CF010E94DB0C44
:1028E000888199819827892798270E945B14EC8911
:1028F000FD89808198A1892B8083DF91CF910C94F1
:10290000540E2F923F924F925F926F927F928F92CE
:102910009F92AF92BF92CF92DF92EF92FF920F936E
:102920001F93CF93DF937C01EB018A016901481764
:1029300059072CF4982F8F2D7A01092F182FCC16B8
:10294000DD062CF49C2F8D2FE601C92ED82E2801F0
:102950004E185F0885E0481651040CF459C0160162
:102960002C1A3D0A85E0281631040CF451C05E0192
:102970008FEFA81AB80A47018FEF881A980AB50195
:10298000C4010E945F14380181E0681A7108B50122
:10299000C3010E945F14560181E0A81AB108B50175
:1029A000C4010E945F14B501C3010E945F1484E05A
:1029B000481A5108570182E0A80EB11CA201BE01BD
:1029C000C5010E94D412A201B601C5010E94D41211
:1029D00084E0281A31082296A101BE01C7010E9495
:1029E000EC13A101BE01C801DF91CF911F910F919E
:1029F000FF90EF90DF90CF90BF90AF909F908F901F
:102A00007F906F905F904F903F902F900C94EC13BD
:102A1000DF91CF911F910F91FF90EF90DF90CF90BA
:102A2000BF90AF909F908F907F906F905F904F90EE
:102A30003F902F9008953CE090E080E047E050E028
:102A4000880F991FE0915904F0915A0420816091F8
:102A50006304262B2083E0915904F0915A0460818D
:102A600020916304209526232083FA013197F1F702
:102A7000E0915F04F0916004208160916604262358
:102A800009F001963150E1F60895E0915904F09172
:102A90005A0420819091630490959223908328E0BA
:102AA000E0915D04F0915E0490916504308187FFB0
:102AB00019C0932B9083880FE0915904F0915A0428
:102AC000308190916304909593239083E091590411
:102AD000F0915A04908130916304932B908321509C
:102AE000F9F6089590959323E5CF4F925F926F92F8
:102AF0007F928F929F92AF92BF92CF92DF92EF928E
:102B0000FF920F931F9360915504709156048FEFBD
:102B10009FEF6F3F760709F454C08091570490915E
:102B200058048F3F980709F44CC000916D04109130
:102B30006E0420916F0430917004072E000C880BF6
:102B4000990BC0907104D12CF12CE12CC016D10648
:102B5000E206F30609F044C080908004909081045E
:102B6000A0908204B0908304C0907404D090750447
:102B7000E0907604F09077049B01AC0128193909A4
:102B80004A095B09C701B6010E94264620918404C8
:102B900030918504409186045091870428193909A1
:102BA0004A095B090E94884557FF03C020E030E0D6
:102BB000A901DA01C901C816D906EA06FB060CF418
:102BC000C6011F910F91FF90EF90DF90CF90BF90C3
:102BD000AF909F908F907F906F905F904F900895EF
:102BE000409088045090890460908A0470908B040F
:102BF0006419750986099709C0907804D090790402
:102C0000E0907A04F0907B0480908C0490908D0486
:102C1000A0908E04B0908F0484189508A608B70879
:102C2000012B022B032BC9F422273327A9012C19CE
:102C30003D094E095F090E942646A50194010E94A4
:102C400088452C0D3D1D4E1D5F1DDA01C901B7FFE2
:102C5000B2CF80E090E0DC01AECF9B01AC01C701B8
:102C6000B6010E942646A50194010E948845EDCF39
:102C70004F925F926F927F928F929F92AF92BF928C
:102C8000CF92DF92EF92FF920F931F9360915504C2
:102C9000709156046F3F760709F495C06091570410
:102CA000709158046F3F760709F48DC000916D0450
:102CB00010916E0420916F0430917004072E000C67
:102CC000880B990BC0907104D12CF12CE12CC0160B
:102CD000D106E206F306D1F580908804909089042D
:102CE000A0908A04B0908B04C0907804D0907904AE
:102CF000E0907A04F0907B049B01AC01281939091B
:102D00004A095B09C701B6010E94264620918C043E
:102D100030918D0440918E0450918F042819390907
:102D20004A095B090E948845B90137FF02C070E07B
:102D300060E0CB01072E000CAA0BBB0BC816D9060E
:102D4000EA06FB060CF03FC0B6013DC0409080048F
:102D50005090810460908204709083046419750916
:102D600086099709C0907404D0907504E0907604A9
:102D7000F09077048090840490908504A09086045D
:102D8000B090870484189508A608B708012B022B79
:102D9000032B49F59B01AC01C701B6010E942646F1
:102DA000A50194010E948845B90137FF02C070E077
:102DB00060E0CB01072E000CAA0BBB0BC816D9068E
:102DC000EA06FB060CF2CB011F910F91FF90EF90EA
:102DD000DF90CF90BF90AF909F908F907F906F903B
:102DE0005F904F90089522273327A9012C193D09A0
:102DF0004E095F090E942646A50194010E9488455C
:102E00002C0D3D1DD1CFCF92DF92EF92FF92E0913A
:102E1000A404F091A50490818091B0048095892349
:102E200080830E94540E80919E04813049F0E0918D
:102E3000A004F091A10480819091AE04892B80833D
:102E4000E0919E042091950430919604409197045E
:102E5000509198042F5F3F4F4F4F5F4F60919904FF
:102E600070919A0480919B0490919C046F5F7F4FB6
:102E70008F4F9F4F0E942646AB01BC01E031B1F459
:102E80009A01AC0170E060E090E080E00E944011A7
:102E9000E091A404F091A50480819091B004892B65
:102EA0008083FF90EF90DF90CF900895C12CD12CBC
:102EB0007601E83029F490E080E00E946A0EE8CFC5
:102EC0002091950430919604409197045091980474
:102ED0002F5F3F4F4F4F5F4F6091990470919A045D
:102EE00080919B0490919C046F5F7F4F8F4F9F4F09
:102EF0000E942646C616D706E806F9064CF640910B
:102F00009E0460E080E0413049F441E060E081E00F
:102F10000E94690A40919E0460E081E00E94690A73
:102F20008FEFC81AD80AE80AF80ACACF2F923F9240
:102F30004F925F926F927F928F929F92AF92BF92C9
:102F4000CF92DF92EF92FF920F931F93CF93DF9375
:102F500000D000D0CDB7DEB77B015E834D83E0911A
:102F6000A404F091A50420819091B004909592233F
:102F70009083082F10E08091C0044091BC04909190
:102F8000BD048111E9C0292F30E0809194048111A2
:102F900069C08D819E81280F391F21503109460F4C
:102FA000572F511D41505109BC01C7010E94DB0C34
:102FB0002091BC042695269526958091BD04289FD6
:102FC000900111248091BE04081B1109209F7001FB
:102FD000219FF00C309FF00C112410E000E094E0F1
:102FE000E90EF11CA701400F511F5A8349838091BC
:102FF000BC048695869586959091BD04899FC001F5
:1030000011240817190708F025C1E091BA04F091BE
:10301000BB04E40FF51FE49187E0C82ED12C8E2F5E
:1030200090E09A83898389819A810C2C02C09595BE
:1030300087950A94E2F780FF10C0809190049091E8
:1030400091049827892798270E945B1491E0C91A58
:10305000D10848F70F5F1F4FC5CF80919204909120
:103060009304EFCF8091BE04081B11094695469545
:103070004695499FA0011124049F6001059FD00C33
:10308000149FD00C112454E0C50ED11C912C812C1E
:103090004091BC04642F6695669566958091BD0449
:1030A000689FC00111248816990608F0D3C070E00B
:1030B000C4010E9436468D819E81680F791F4E0D96
:1030C0005F2D511D415051099B01C7010E94DB0C2E
:1030D0000091BC040695069506950150110B0F3F13
:1030E000100779F1E091BA04F091BB0438016C0C3F
:1030F0007D1CE60DF71DE491B12CA12C6E2E712CD8
:10310000C3010A2C02C0959587950A94E2F780FFC7
:1031100013C0809190049091910498278927982753
:103120000E945B144FEFA41AB40A58E0A516B1042C
:1031300039F701501109D3CF8091920490919304F3
:10314000ECCF8091BC0486958695869590E0C80E5C
:10315000D91E880E991E9CCF469546954695499F47
:10316000A00111248091BE04081B1109409F300169
:10317000419F700C509F700C112484E0680E711CEC
:103180004D805E809FEF491A590ACD80DE802091E4
:10319000BD04C6014D815E81841B950B281719065D
:1031A00009F008F457C05701912C812C8091BC0480
:1031B00086958695869590E0881699060CF041C014
:1031C000E091BA04F091BB04C401860D971DE80F8D
:1031D000F91FE49107E010E08E2F90E09A83898335
:1031E000A501485F5F4F5C834B83150157E0250EB7
:1031F000311C89819A81002E02C0959587950A9489
:10320000E2F780FF14C092014B815C81401B510B9F
:10321000B601C101801B910B0E94DB0C80919004D0
:10322000909191049827892798270E945B14015058
:103230001109F8F69FEF891A990A48E0A40EB11C0B
:10324000B5CF680E791E5FEFC51AD50A8FEF481A01
:10325000580A9DCFE091A404F091A504808190913B
:10326000B004892B808326960FB6F894DEBF0FBE7C
:10327000CDBFDF91CF911F910F91FF90EF90DF9025
:10328000CF90BF90AF909F908F907F906F905F9006
:103290004F903F902F900C94540EA0E9B4E09B9671
:1032A0009C938E939A97FC0124919C962C939C97C7
:1032B0003196E4919D96EC939D97FC013296E491B2
:1032C0009E96EC939E970396FC0184919F968C9317
:1032D00008958F929F92AF92BF92CF92DF92EF921A
:1032E000FF920F931F93CF93DF936C017B01EA0151
:1032F0008901481759072CF4982F8D2D6A01C92F81
:10330000D82F0E151F052CF49E2D8F2D7801092F17
:10331000182F80919E04803109F052C0E091A404DE
:10332000F091A50490818091B004809589238083D9
:103330009801AE01B701C6010E94DB0CE091A00428
:10334000F091A10480819091AE04892B80839E012D
:103350002C193D09032E000C440B550B2F5F3F4FDA
:103360004F4F5F4FB8016E197F09072E000C880B75
:10337000990B6F5F7F4F8F4F9F4F0E9426469B0197
:10338000AC01E09191046E2F70E08091900490E088
:103390000E944011E091A404F091A50480819091D5
:1033A000B004892B8083DF91CF911F910F91FF9003
:1033B000EF90DF90CF90BF90AF909F908F90089547
:1033C000883009F03FC09091900480919104981347
:1033D00039C0E091A404F091A50490818091B004DB
:1033E0008095892380839801AE01B701C6010E94B0
:1033F000DB0CE091A004F091A10480819091AE04D7
:10340000892B80839E012C193D09032E000C440B4F
:10341000550B2F5F3F4F4F4F5F4FB8016E197F091C
:10342000072E000C880B990B6F5F7F4F8F4F9F4FBC
:103430000E942646AB01BC018091900490E00E945E
:103440006A0EA8CF80919404882321F14E018C1834
:103450009D0897FE03C08FEF881A980A9594879469
:10346000B12CA12C0E191F098A149B040CF49BCFBC
:10347000A801B701C6018A0D9B1D0E94EC13A8018B
:10348000B701CE018A199B090E94EC138FEFA81A8D
:10349000B80AEACF5801AE18BF08B7FE03C08FEFD5
:1034A000A81AB80AB594A794912C812CCC19DD09DF
:1034B000A814B9040CF477CFB701680D791DAE01DB
:1034C000C6010E94D412B80168197909AE01C6017B
:1034D0000E94D4128FEF881A980AEACF4F925F9217
:1034E0006F927F928F929F92AF92BF92CF92DF9214
:1034F000EF92FF920F931F93CF93DF935C016B01C9
:1035000088249924841A950A449F2001459F500CD1
:10351000500C11248401712C612C101611067CF1C1
:10352000009F9001019F300D300D1124E4011C1605
:103530001D0604F1CC9FC001CD9F900D900D11246C
:10354000820F931F48165906C4F07301EC1AFD0A46
:10355000EE0CFF1CCA0DDB1DA701B8016C0D7D1D13
:10356000CE010E94D412A701B601601B710BCE01DF
:103570000E94D4120F5F1F4FD0CF2196D8CFDF917A
:10358000CF911F910F91FF90EF90DF90CF90BF9060
:10359000AF909F908F907F906F905F904F90089525
:1035A000E0E9F4E0A089B1899C91268D922B9C934F
:1035B00082B9A289B3899C91878D809589238C9348
:1035C000A289B3898C91978D892B8C930895F89457
:1035D00081E08093090280911F039091200301965E
:1035E0009093200380931F0378940895AF92BF9225
:1035F000CF92DF92EF92FF920F931F93CF93DF93BF
:103600006C017B018B01040F151FEB015E01AE18ED
:10361000BF08C017D10759F06991D601ED91FC910F
:103620000190F081E02DC6011995892B79F7C5012C
:10363000DF91CF911F910F91FF90EF90DF90CF908E
:10364000BF90AF900895CF93DF93FC0144815581E3
:103650006081718181E293E00E94F61AEC0142E000
:1036600050E068E272E081E293E00E94F61A8C0F6B
:103670009D1FDF91CF910895FC01538D448D252F1F
:1036800030E0842F90E0821B930B541710F0CF96FC
:10369000089501970895FC01918D828D981761F02E
:1036A000A28DAE0FBF2FB11D5D968C91928D9F5F45
:1036B0009F73928F90E008958FEF9FEF0895FC0124
:1036C000918D828D981731F0828DE80FF11D858DD7
:1036D00090E008958FEF9FEF0895FC01918D228D6A
:1036E000892F90E0805C9F4F821B91098F739927EF
:1036F000089581E293E00E946D1B21E0892B09F47B
:1037000020E0822F0895FC01A48DA80FB92FB11DD0
:10371000A35ABF4F2C91848D90E001968F73992707
:10372000848FA689B7892C93A089B1898C918370E5
:1037300080648C93938D848D981306C00288F389DE
:10374000E02D80818F7D80830895EF92FF920F930B
:103750001F93CF93DF93EC0181E0888F9B8D8C8D3D
:1037600098131AC0E889F989808185FF15C09FB731
:10377000F894EE89FF896083E889F98980818370F4
:10378000806480839FBF81E090E0DF91CF911F91A3
:103790000F91FF90EF900895F62E0B8D10E00F5FC4
:1037A0001F4F0F731127E02E8C8D8E110CC00FB69A
:1037B00007FCFACFE889F989808185FFF5CFCE0132
:1037C0000E94831BF1CFEB8DEC0FFD2FF11DE35A0F
:1037D000FF4FF0829FB7F8940B8FEA89FB898081B5
:1037E0008062CFCFCF93DF93EC01888D8823B9F02F
:1037F000AA89BB89E889F9898C9185FD03C08081FC
:1038000086FD0DC00FB607FCF7CF8C9185FFF2CF78
:10381000808185FFEDCFCE010E94831BE9CFDF9130
:10382000CF91089580E090E0892B29F00E94791BC8
:1038300081110E94000080E090E0892B49F080E037
:1038400090E0892B29F00E94000081110E94000065
:1038500080E090E0892B49F080E090E0892B29F00E
:103860000E94000081110E94000080E090E0892BFE
:1038700049F080E090E0892B29F00E94000081113E
:103880000C9400000895282F30E0F901EC59FC4E0B
:103890009491F901EC53FC4E44912C5D3B4EF9019F
:1038A0002491222309F435C0992311F191509231CA
:1038B000F8F4E92FF0E08827EF59F34E8F4F0C947E
:1038C0005E46921C961C731C8A1C8E1C781C991CCC
:1038D0009F1CA31CA91CAD1CB11CB71CBB1C781CD5
:1038E000BF1CC51CC91C809180008F77809380000D
:1038F000E22FF0E0EE0FFF1FE65FFB4EA591B491C3
:103900008FB7F894EC91611148C040954E234C93C9
:103910008FBF0895809180008F7DE8CF80918000D7
:10392000877FE4CF84B58F7784BDE2CF84B58F7D68
:10393000FBCF8091B0008F778093B000D9CF80917A
:10394000B0008F7DF9CF809190008F7780939000A9
:10395000CFCF809190008F7DF9CF80919000877FAD
:10396000F5CF8091A0008F778093A000C1CF809188
:10397000A0008F7DF9CF8091A000877FF5CF809147
:1039800020018F7780932001B3CF809120018F7D1C
:10399000F9CF80912001877FF5CF4E2BB8CFCF9301
:1039A000DF9390E0FC01EC53FC4E24918C5D9B4E28
:1039B000FC0184918823D1F090E0880F991FFC01CD
:1039C000E65BFC4EA591B491FC01E65FFB4EC59110
:1039D000D49161110EC09FB7F8948C91E22FE095BD
:1039E0008E238C932881E223E8839FBFDF91CF91C0
:1039F00008958FB7F894EC91E22BEC938FBFF6CF3C
:103A00004F925F926F927F928F929F92AF92BF92EE
:103A1000CF92DF92EF92FF920F931F93CF93DF939A
:103A2000CDB7DEB762970FB6F894DEBF0FBECDBF3D
:103A3000E0915B04F0915C04908180916404809536
:103A40008923808360E080916C040E94CF1C10E089
:103A500000E01A8A198A1D861E861F86188A2FE999
:103A600036E841E050E029873A874B875C871D8222
:103A70001E821F8218868FE996E8A1E0B0E0898354
:103A80009A83AB83BC83812C912C5401412C512C03
:103A90003201809172048017110609F00CF4A5C060
:103AA000E0916104F0916204808190916704892320
:103AB00009F098C080E90E944515E0915904F09101
:103AC0005A04808190916304892B8083E09159048A
:103AD000F0915A04908180916304809589238083BA
:103AE0000E941B156C01E0916104F09162049081C9
:103AF00080916704982309F075C0F12CE12C80EDCA
:103B00000E944515E0915904F0915A0480819091EA
:103B10006304892B8083E0915904F0915A049081C9
:103B2000809163048095892380830E941B15B701CF
:103B3000A60141505109610971094F3F5F4061057C
:103B4000710508F04FC09C01215031092F3F3F40C3
:103B500008F048C0B0E0A0E04C0C5D1C6E1C7F1C5F
:103B6000880E991EAA1EBB1E209172042630A0F159
:103B700029813A814B815C81C216D306E406F506A1
:103B800020F4C982DA82EB82FC822D813E814F8152
:103B900058852C153D054E055F0520F4CD82DE824B
:103BA000EF82F88629853A854B855C8582179307D5
:103BB000A407B50720F489879A87AB87BC872D8532
:103BC0003E854F855889281739074A075B0720F437
:103BD0008D879E87AF87B88B49895A894F5F5F4F22
:103BE0005A8B498B0F5F1F4F54CF61E080916C045B
:103BF0000E94CF1C80917204863030F189819A81B5
:103C0000AB81BC812D813E814F815885820F931FEE
:103C1000A41FB51F481A590A6A0A7B0A89859A8522
:103C2000AB85BC852D853E854F855889820F931FB6
:103C3000A41FB51F881A990AAA0ABB0A49895A897A
:103C4000425051095A8B498BE0915B04F0915C041E
:103C5000808190916404892B8083809172048250CA
:103C6000990BA989BA898A179B0719F0119709F04E
:103C70004DC029893A896901330FEE08FF08C30155
:103C8000B201A70196010E94BA452901C501B401FC
:103C9000A70196010E94BA458091710490E0B0E0BE
:103CA000A0E0C0906D04D0906E04E0906F04F0909E
:103CB00070048C159D05AE05BF05F9F430935604CC
:103CC00020935504509258044092570462960FB6C0
:103CD000F894DEBF0FBECDBFDF91CF911F910F9142
:103CE000FF90EF90DF90CF90BF90AF909F908F901C
:103CF0007F906F905F904F9008955092560440923D
:103D000055043093580420935704E0CF8FEF9FEF72
:103D100090935604809355049093580480935704CD
:103D2000D5CFCF9360E080916C040E94CF1CE091CE
:103D30006104F09162048081909167048923C1E05D
:103D400009F0C0E061E080916C040E94CF1C8C2FD0
:103D5000CF9108953FB7F89480910A0390910B0397
:103D6000A0910C03B0910D0326B5A89B05C02F3F71
:103D700019F00196A11DB11D3FBFBA2FA92F982F91
:103D80008827BC01CD01620F711D811D911D42E08C
:103D9000660F771F881F991F4A95D1F708958F9254
:103DA0009F92AF92BF92CF92DF92EF92FF926B0100
:103DB0007C010E94AA1E4B015C01C114D104E104E4
:103DC000F104B9F00E94AA1E681979098A099B09B1
:103DD000683E73408105910580F321E0C21AD10845
:103DE000E108F10888EE880E83E0981EA11CB11C42
:103DF000E4CFFF90EF90DF90CF90BF90AF909F9077
:103E00008F900895DC0180E0615090F09D9198279B
:103E1000E92FEF70F0E0E65DFC4E2491E92FE2958A
:103E2000EF70F0E0E65CFC4EE491822F8E27ECCF41
:103E30000895DC012C911196ED91FC91F89481810B
:103E4000822B81839281322F30959323928387E056
:103E500090E00197F1F781818323818383E290E0F1
:103E60000197F1F790817894EFECF0E03197F1F75A
:103E7000922381E009F480E00895FC0190810180A3
:103E8000F281E02D292F209560FF14C0F8948281E3
:103E9000822382838181892B8183A3E2B0E0119701
:103EA000F1F78281982B9283789487ED90E00197C7
:103EB000F1F70895F8948281822382838181892B8E
:103EC0008183AFEFB0E01197F1F78281982B928355
:103ED00078948FE090E0EBCFDF92EF92FF920F9318
:103EE0001F93CF93DF93EC01D62EE42E08E010E071
:103EF000FF24F39461E08D2D8F2109F460E0CE0161
:103F00000E943D1FFF0C01501109A1F7E11010C0E4
:103F1000F894E981FA819181888180958923818350
:103F2000E981FA81928188818095892382837894BE
:103F3000DF91CF911F910F91FF90EF90DF90089547
:103F4000EF92FF920F931F93CF93DF938C017B012E
:103F500040E065E50E946C1FE70188E0E80EF11C77
:103F6000699140E0C8010E946C1FCE15DF05C1F7C2
:103F7000DF91CF911F910F91FF90EF900895FC0179
:103F800090810180F281E02DF8948181292F209584
:103F90008223818378943DE743E050E0315029F15A
:103FA000DA011197F1F780818923C1F3F8948281B6
:103FB000822382838181892B81837894ABE7B7E068
:103FC0001197F1F7F894818182238183A3E1B1E015
:103FD0001197F1F78081982381E009F080E07894CF
:103FE000E3E6F6E03197F1F7089580E008956F92E7
:103FF0007F928F929F92AF92BF92CF92DF92EF9279
:10400000FF920F931F93CF93DF938C01EB0180916D
:10401000390490913A040E94BF1F882309F43FC0DD
:10402000B8018091390490913A040E94A01F40E0A9
:104030006EEB8091390490913A040E946C1F7E01CE
:104040006E0189E0C80ED11C8E01A0903904B09099
:104050003A0488E0882E912C712C66246394C50163
:104060000E94191F81117628660CE1E08E1A9108D2
:10407000B1F7F80171928F01CE16DF0631F780910A
:10408000390490913A040E94BF1F813041F4F70136
:1040900081917F01811105C0E017F107C1F790E020
:1040A00008C068E0CE010E94021F91E02885281315
:1040B000F6CF892FDF91CF911F910F91FF90EF9055
:1040C000DF90CF90BF90AF909F908F907F906F9038
:1040D00008950895CF92DF92EF92FF920F931F936E
:1040E000CF93DF93EC018B017A01690188EF809314
:1040F000900410929104CE010E9481140E94911E9E
:10410000882319F00E94001DF9CF8FEF809390044F
:10411000809391049601A701B801CE01DF91CF9160
:104120001F910F91FF90EF90DF90CF900C9481142E
:104130008F929F92AF92BF92CF92DF92EF92FF92B7
:104140000F931F93CF93DF937C01EB016A01FC0176
:1041500001900020E9F731978F01081B190B80911E
:10416000940481114FC06F30774271F4C09195046F
:10417000D091960421962091BC04209FC001219FDC
:10418000900D1124C81BD90BCE30E7E2DE0711F5E4
:104190006091950470919604809197049091980491
:1041A0006F5F7F4F8F4F9F4F2091BC04209F400136
:1041B000219F900C1124092C000CAA08BB08681937
:1041C00079098A099B0922E030E040E050E00E9432
:1041D0008845E901B12CA12CA016B1068CF580917F
:1041E000BC048A9DB0018B9D700D11246C0F7D1F46
:1041F000A601F70181917F010E949617FFEFAF1A88
:10420000BF0AEACF6F30774271F4C0919904D09120
:104210009A0421962091BC04209FC001219F900DFB
:104220001124C81BD90BCE3087E2D80799F66091CC
:10423000990470919A0480919B0490919C04B0CF52
:10424000DF91CF911F910F91FF90EF90DF90CF9072
:10425000BF90AF909F908F9008952F923F924F9272
:104260005F926F927F928F929F92AF92BF92CF9206
:10427000DF92EF92FF920F931F93CF93DF93CDB70F
:10428000DEB7E7970FB6F894DEBF0FBECDBF2B01A8
:104290003C011A013FAB2EAB41145104610471047F
:1042A00009F03FC001151105C9F0CE010196FC01CE
:1042B00098012150310940E2BF01681B790B621758
:1042C000730714F44193F8CF280F391F40E3F90125
:1042D0004083080F191FF801108203C080E389830F
:1042E0001A824EA95FA9B101CE0101960E949820C1
:1042F000E7960FB6F894DEBF0FBECDBFDF91CF912A
:104300001F910F91FF90EF90DF90CF90BF90AF90F3
:104310009F908F907F906F905F904F903F902F90E5
:10432000089577FE36C07094609450944094411C78
:10433000511C611C711CF1E0FDAB6E012CE1C20E41
:10434000D11C7601BAE08B2E912CA12CB12C9701B7
:104350002C193D094114510461047104E1F0C301B9
:10436000B201A50194010E94884520E3260FF701C0
:1043700021937F01A3019201261B370B480B590B98
:10438000CA01B901A50194010E94884529013A0199
:10439000DECF1DAAD2CFF601E20FF31F1082EDA8E7
:1043A000EE2011F08DE28983FDA88F2D90E0AC0105
:1043B000420F531F40175107ACF4E1E0F0E0EC0F5F
:1043C000FD1FE80FF91F021B130B081B190BBF0180
:1043D000A0E2FA2EDF01A61BB70BA017B107F4F07D
:1043E00017FF02C010E000E0D601A20FB31F70E07B
:1043F00060E0800F911F11976217730789F0FC012D
:10440000E60FF71FEE24E394F12CEC0EFD1EEE0DEB
:10441000FF1DFC90F0826F5F7F4FEDCFF192DACFFE
:1044200021E030E02C0F3D1F420F531FFA01E00F37
:10443000F11F52CFBF92CF92DF92EF92FF920F9374
:104440001F93CF93DF93EC01B62EC72E8D8581117C
:1044500005C0CE010E94BF1F81110EC01B861D86A4
:104460001C8680E0DF91CF911F910F91FF90EF901C
:10447000DF90CF90BF90089540E060EFCE010E94A2
:104480006C1F01E0E12CD12C11E0CE010E94191F1C
:10449000F82ECE010E94191F91E0F91218C0813048
:1044A00099F51134D8F2DB86D11002C081E08D87F6
:1044B0008B81882399F22396EB2DFC2DCF01089652
:1044C00029912193E817F907D9F781E0CBCFEE2D99
:1044D000F0E0F8120FC08B851817A0F4DE01AE0FC4
:1044E000BF1F13968C91802379F4F12C193008F4B6
:1044F0001C87D12EEC0FFD1F8381902F909589236F
:1045000083830AC08113F1CFFE01EE0DF11D83817B
:10451000802B8383FF24F3946F2DCE010E943D1FD7
:104520001F5F000F11F4E39401E087E08E1508F09F
:10453000ACCFB7CFCF93DF93CDB7DEB761970FB6D0
:10454000F894DEBF0FBECDBFE0913904F0913A047C
:104550001386158614861286118610861782168297
:10456000158214821382BE01665F7F4F80913904E9
:1045700090913A040E941A2281110DC060E070E00F
:104580008EEF92EC61960FB6F894DEBF0FBECDBFF2
:10459000DF91CF91089567E0CE010A960E94021F35
:1045A00099898913EBCFBE016F5F7F4FCE010A96C9
:1045B0000E94F71F882311F36A8170E0762F662727
:1045C000770F770F770F298148E0249F90011124FE
:1045D000262B372B8A858031E1F468856623C9F064
:1045E00070E08F81AB01481B5109CA019695982F45
:1045F0008827979587950E944A46CB018097B901F5
:1046000053E0660F771F5A95E1F760789C01260FFB
:10461000371F213854EE35070CF4B0CFB901330FF2
:10462000880B990B0E946B4420E030E040E05CE393
:104630000E94CA44A7CF8F929F92AF92BF92CF920F
:10464000DF92EF92FF920F931F93CF93DF930E941D
:104650009A220091C5041091C604C090C304D09062
:10466000C404C091C104D091C204E090C704F0908A
:10467000C80420E030E0A9010E94644487FF2FC0F5
:10468000109290048FE1809391049701A801B601E4
:10469000CE010E946919C6EBD0E01FEF1093900481
:1046A000109391049E012E5F3F4F4FE151E0BE01F8
:1046B00088E191E00E9469192E97CA32D10571F7FD
:1046C00010920502DF91CF911F910F91FF90EF9013
:1046D000DF90CF90BF90AF909F908F9008950E94F1
:1046E0009A2220E030E040E252E40E94214618166F
:1046F0003CF20E949A222FEF209390042093910481
:104700000E94EB459B01AC01AEE7BFEF0E94B545AF
:1047100028E230E040E050E00E94884549015A011B
:104720008EEB880E911CA11CB11C9401A801B6014E
:10473000CE010E94691988EF809390041092910431
:104740009701A801B401A4CFCF92DF92EF92FF921C
:104750000F931F93CF93DF93CDB7DEB7CDB6DEB601
:10476000FC010481158198012F5F3F4F4DB75EB763
:10477000421B530B0FB6F8945EBF0FBE4DBFEDB793
:10478000FEB731967F01232B21F001151105B1F4FD
:10479000108248E250E06EE077E2C7010E94982064
:1047A0000FB6F894DEBE0FBECDBEDF91CF911F9144
:1047B0000F91FF90EF90DF90CF900895FC01608102
:1047C0007181A801C7010E947C48F701E00FF11F29
:1047D000DFCFFC0180819181009711F00C9402479A
:1047E00008950F931F93CF93DF93EC0188819981F4
:1047F000009759F02A813B812617370730F081E076
:10480000DF91CF911F910F9108958B016F5F7F4FC3
:104810000E948B47009759F0998388831B830A83F2
:104820002C813D81232B59F7FC011082E8CF80E0D9
:10483000E7CFEF92FF920F931F93CF93DF93EC019B
:10484000FB01E080F180E114F10411F10481158194
:1048500001151105A9F08C819D81080F191FB80160
:10486000CE010E94F123882399F0288139818C811F
:104870009D81B701820F931F0E9475481D830C8391
:10488000CE01DF91CF911F910F91FF90EF9008958E
:1048900088819981009711F00E940247198218823D
:1048A0001D821C821B821A82EBCFEF92FF920F9324
:1048B0001F93CF93DF93EC017B018A01BA010E9421
:1048C000F12328813981811114C02115310519F096
:1048D000C9010E940247198218821D821C821B8214
:1048E0001A82CE01DF91CF911F910F91FF90EF902F
:1048F00008951D830C83B701C9010E947548F1CF4B
:10490000EF92FF920F931F93CF93DF9300D000D0CD
:1049100000D0CDB7DEB78C01862FF801118210824E
:1049200013821282158214824AE09E012F5F3F4F4C
:104930007901B90190E00E94E941F701019000205E
:10494000E9F73197AF014E195F09B701C8010E941D
:10495000552429960FB6F894DEBF0FBECDBFDF9168
:10496000CF911F910F91FF90EF900895EF92FF92DA
:104970000F931F93CF93DF93CDB7DEB762970FB638
:10498000F894DEBF0FBECDBF8C01CB01F8011182C0
:10499000108213821282158214824AE09E012F5FD8
:1049A0003F4F7901B9010E94DE41F70101900020DB
:1049B000E9F73197AF014E195F09B701C8010E94AD
:1049C000552462960FB6F894DEBF0FBECDBFDF91BF
:1049D000CF911F910F91FF90EF900895FC011182EC
:1049E00010821382128215821482FB010190002032
:1049F000E9F73197AF01461B570B0C9455240F93E1
:104A00001F93CF93DF9300D000D0CDB7DEB78C01DA
:104A100010929204109293041092C0048FEF80932E
:104A200090048093910486E497E00E944D194AE037
:104A300050E06EE077E28BE292E00E9498208EECEC
:104A400092E00E944D191A8219821C821B821E82DA
:104A50001D82F801608171816115710531F0448119
:104A60005581CE0101960E945524CE0101960E94E7
:104A7000A423CE0101960E94E92387E0809390044D
:104A800080EE809391044FE351E060E270E090E0AB
:104A900080E00E94D4120E94540E26960FB6F8941D
:104AA000DEBF0FBECDBFDF91CF911F910F91089553
:104AB0003F924F925F926F927F928F929F92AF92AE
:104AC000BF92CF92DF92EF92FF920F931F93CF93FB
:104AD000DF9300D000D0CDB7DEB77C018091080312
:104AE000811193C00E9403176DE372E0CE0101961D
:104AF0000E94EE24CE0101960E94FF24CE01019671
:104B00000E94E9231FEF1093900400EE009391049C
:104B100027ED30E045E351E06CE370E087E191E0A0
:104B20000E94691910939004109391048EEC92E006
:104B30000E944D194DE250E061EE70E089E492E090
:104B40000E9498204FE450E061EE70E08FE492E024
:104B50000E94982041E750E061EE70E085E592E028
:104B60000E94982043E950E061EE70E08BE592E00E
:104B70000E94982045EB50E061EE70E081E692E003
:104B80000E94982047ED50E061EE70E087E692E0E9
:104B90000E94982037E0D32ED09290040093910485
:104BA00024E630E040E550E06CE370E084E190E022
:104BB0000E944313109390041093910424E630E074
:104BC00040E550E06CE370E084E190E00E948114E5
:104BD00086E497E00E944D19D092920400939304CA
:104BE0001092C00446E450E069E170E08DE692E086
:104BF0000E94982081E080930803809301028093B3
:104C0000080280930702809300020E94911E88236D
:104C100009F494C00E94001D0E9475156C01092EB4
:104C2000000CAA0BBB0B8093180390931903A0935D
:104C30001A03B0931B030E94381600EF10E0081B04
:104C4000190BC801012E000CAA0BBB0B8093140397
:104C500090931503A0931603B093170327E1C21690
:104C600021E0D20608F40DC2E6E3CE16E1E0DE064E
:104C700008F045C00C33110508F441C0083D11058A
:104C8000F0F58D339105A105B1050CF0EEC18CE373
:104C900090E0F70192878187F70181849284B12C9B
:104CA000A12CF7ED8F1A9108A108B108A4EFB1E08B
:104CB000A50194010E94A74525E6422E55245A9449
:104CC000652C752CA30192010E94884528533F4F03
:104CD0004F4F5F4FF70134872387A4E6B0E0A5016B
:104CE00094010E94A745A30192010E948845F70103
:104CF0003687258781E080930102809307028BE944
:104D0000C81AD108EDE3CE16D104C0F40D5711092D
:104D10000D33110598F429EB30E047ED50E06DE7D5
:104D200070E08BE990E00E946A20F7018481811194
:104D3000CDC181E0848381E08093000280910102F3
:104D4000882309F447C0F70103851485C584D684F8
:104D5000109290041092910423EB30E048E750E069
:104D600068E770E084E190E00E9469191092920473
:104D7000109293041092C0048FEF8093900480935C
:104D8000910486E497E00E944D1948E750E064E101
:104D900070E081E792E00E949820B80190E080E006
:104DA00003E010E02CE830E044E150E00E942D21C7
:104DB000B60190E080E020EA30E044E150E00E945B
:104DC0002D2140EA50E066E470E085E20E949617EB
:104DD0001092010280910802882309F447C0F7016C
:104DE00007851089C188D28810929004109291048E
:104DF0002FEE30E048E750E064EB70E084E190E0B3
:104E00000E94691910929204109293041092C004A7
:104E10008FEF809390048093910486E497E00E9442
:104E20004D1944EB50E064E170E086E792E00E94A7
:104E30009820B80190E080E003E010E028EC30E03A
:104E400044E150E00E942D21B60190E080E02CED7D
:104E500030E044E150E00E942D214CED50E066E44A
:104E600070E085E20E949617109208028091070276
:104E7000882309F4B8C0F70107811085C184D28462
:104E800033243A9430929004309291043601F2E047
:104E90006F1A7108260122E0420E511C930145E36E
:104EA00051E0B20187E191E00E94691988EF809397
:104EB000900410929104480182E0881A91085801E8
:104EC000E2E0AE0EB11C940145E351E0B50187E18B
:104ED00091E00E9469193092900480EE80939104D1
:104EE0009301C016D10608F0940145E351E06AE34E
:104EF00070E087E191E00E946919B2010C151D056F
:104F000008F0B50129ED30E045E351E087E191E09B
:104F10000E9469190C151D0508F44301C016D1063D
:104F200008F45201940145E351E0B50187E191E0B5
:104F30000E94691910920702F7018681882309F4FB
:104F4000C7C087E08093900480EE8093910428E7A7
:104F500030E047ED50E06CE370E08BE990E00E94B8
:104F600043138FEF809390048093910428E730E0FF
:104F700047ED50E06CE370E08BE990E00E94811413
:104F800060910402062E000C770B880B990B10E041
:104F900000E02FE330E04EE950E00E942D21F701C0
:104FA0008581882309F49AC087E08093900480EE7D
:104FB0008093910428E730E046E950E06CE370E02C
:104FC0008AE590E00E9443138FEF809390048093D2
:104FD000910428E730E046E950E06CE370E08AE5B0
:104FE00090E00E94811480910002882331F1F70142
:104FF0008481882309F478C087E08093900480EE50
:105000008093910429EB30E047ED50E06DE770E0CC
:105010008BE990E00E9443138FEF8093900480937C
:10502000910429EB30E047ED50E06DE770E08BE94B
:1050300090E00E9481141092000226960FB6F89418
:10504000DEBF0FBECDBFDF91CF911F910F91FF90BB
:10505000EF90DF90CF90BF90AF909F908F907F9018
:105060006F905F904F903F900895873D9105A10507
:10507000B1051CF087ED90E00CCEF7011287018797
:105080000BCEF4E1CF16D10408F458CE21E5C216B8
:10509000D10408F034CE0C33110508F430CE0536B7
:1050A000110508F02CCE24E630E040E550E06CE33A
:1050B00070E084E190E00E946A2010921E0310923A
:1050C0001D030E9403171092080319CE148233CED9
:1050D00088EF809390041092910439CF88EF8093E9
:1050E00090041092910466CF88EF80939004109200
:1050F000910488CF0F931F93CF93DF93CDB7DEB783
:105100006B970FB6F894DEBF0FBECDBF8FEF8093C5
:1051100090048093910487E08093920480EE8093C2
:1051200093041092C00486E497E00E944D190E94F7
:105130009A2220E030E04EEF52EC0E94644481114C
:1051400015C048EC50E064EB70E08CE792E00E9400
:105150009820109206026B960FB6F894DEBF0FBE31
:10516000CDBFDF91CF911F910F9108950E949A2298
:105170008E010F5F1F4F21E040E00E94C04148ECCC
:1051800050E064EB70E0C801E2CFAF92BF92CF92E3
:10519000DF92EF92FF920F931F93CF93DF9300D094
:1051A00000D0CDB7DEB70E9403176AE272E0CE01ED
:1051B00001960E94EE24CE0101960E94FF24CE01AA
:1051C00001960E94E92387E0F82EF092900400EE09
:1051D0000093910420E530E046E950E068E270E099
:1051E00084E190E00E9443131FEF1093900410930A
:1051F000910420E530E046E950E068E270E084E1A7
:1052000090E00E94811486E497E00E944D19F0928C
:105210009204009393041092C00442E350E06EE1C4
:1052200070E080E892E00E949820F0929004009351
:10523000910422E830E046E950E06AE570E084E15C
:1052400090E00E944313109390041093910422E87D
:1052500030E046E950E06AE570E084E190E00E94C9
:10526000811486E497E00E944D19F0929204009315
:1052700093041092C00444E650E06EE170E087E8C9
:1052800092E00E949820F09290040093910424EB05
:1052900030E046E950E06CE870E084E190E00E9484
:1052A0004313109390041093910424EB30E046E9EB
:1052B00050E06CE870E084E190E00E94811486E4A4
:1052C00097E00E944D19F09292040093930410927B
:1052D000C00446E950E06EE170E08EE892E00E9482
:1052E0009820F09290040093910426EE30E04AEF6B
:1052F00050E06EEB70E08AEA90E00E944313109356
:1053000090041093910426EE30E04AEF50E06EEBEB
:1053100070E08AEA90E00E9481140E947A2810933B
:105320009004109391042EEB30E04CE251E06CE3DA
:1053300070E088E191E00E9469194AE050E06CE376
:1053400070E082E291E00E946E1AE090C504F09055
:10535000C6048EEBE80EF11C8091C1049091C2044A
:10536000E81AF90A44E150E0B70182E291E00E94B4
:105370006E1A88EF809390041092910440E150E0FF
:10538000B70182E291E00E946E1A8EEC92E00E94D8
:105390004D1910939004109391041092920410925E
:1053A00093041092C00494EBA92EB12CC12CD12CE3
:1053B000760110E000E0950146E051E0C701B6013A
:1053C0000E942D218AE0C80ED11CE11CF11C80E254
:1053D000A81AB10882E3C816D104E104F10449F720
:1053E0000E941B2381E080931C0326960FB6F8943D
:1053F000DEBF0FBECDBFDF91CF911F910F91FF9008
:10540000EF90DF90CF90BF90AF9008951F920F92D2
:105410000FB60F9211240BB60F922F933F934F9319
:105420005F936F937F938F939F93AF93BF93EF930C
:10543000FF9381E293E00E94831BFF91EF91BF9164
:10544000AF919F918F917F916F915F914F913F911C
:105450002F910F900BBE0F900FBE0F901F901895BD
:105460001F920F920FB60F9211240BB60F922F932B
:105470008F939F93EF93FF93E0913103F091320369
:105480008081E0913703F091380382FD1DC0908147
:1054900080913A038F5F8F7320913B03821741F015
:1054A000E0913A03F0E0EF5DFC4F958F80933A0373
:1054B000FF91EF919F918F912F910F900BBE0F90C5
:1054C0000FBE0F901F9018958081F2CF1F920F9200
:1054D0000FB60F9211242F933F938F939F93AF9307
:1054E000BF9380910E0390910F03A0911003B09190
:1054F00011033091090323E0230F2D3758F501964E
:10550000A11DB11D2093090380930E0390930F03F7
:10551000A0931003B093110380910A0390910B03A1
:10552000A0910C03B0910D030196A11DB11D8093B4
:105530000A0390930B03A0930C03B0930D03BF9148
:10554000AF919F918F913F912F910F900FBE0F9030
:105550001F90189526E8230F0296A11DB11DD2CFEA
:105560001F920F920FB60F9211240BB60F922F932A
:105570003F934F935F936F937F938F939F93AF93DB
:10558000BF93EF93FF93E0910202F091030219950C
:10559000FF91EF91BF91AF919F918F917F916F910B
:1055A0005F914F913F912F910F900BBE0F900FBEC7
:1055B0000F901F901895CF93E1E2F3E013821282CF
:1055C00088EE93E0A0E0B0E084839583A683B78360
:1055D0008AE192E09183808385EC90E095878487CF
:1055E00084EC90E09787868780EC90E0918B808BAD
:1055F00081EC90E0938B828B82EC90E0958B848B96
:1056000086EC90E0978B868B118E128E138E148E03
:10561000E1ECF4E08CE191E0918380838CE390E015
:105620009383828388E291E0958384838EEB90E07C
:1056300097838683A0E9B4E04FEE50E060E070E02D
:1056400015964D935D936D937C9318974FE351E0BE
:1056500060E070E019964D935D936D937C931C9779
:1056600080E11E968C931E9781E11D968C931D9769
:1056700086E295968C93959787E296968C9396976B
:1056800088E297968C93979789E298968C9398974F
:1056900099961C9299978FEF81B987B9EAE4F4E162
:1056A000E491F0E0EE0FFF1FE65FFB4E85919491D1
:1056B00051969C938E935097EAEEF3E1E4915E96B7
:1056C000EC935E97EBE4F4E1E491F0E0EE0FFF1F62
:1056D000E65FFB4E8591949153969C938E935297DF
:1056E000EBEEF3E1E4915F96EC935F97ECE4F4E189
:1056F000E491F0E0EE0FFF1FE65FFB4E8591949181
:1057000055969C938E935497ECEEF3E1E49190962A
:10571000EC939097EDE4F4E1E491F0E0EE0FFF1FDD
:10572000E65FFB4E8591949157969C938E93569786
:10573000EDEEF3E1E4919196EC93E5E5F4E086E09B
:10574000838B85E0848B84E0858B83E0868BC2E04D
:10575000C78B60E086E30E94CF1CEAEFF3E1E4919F
:10576000A7E4B4E0EC93EAE5F4E1E491F0E0EE0FB5
:10577000FF1FE655FC4E8591949112969C938E9353
:1057800011971B961C921B971D961C921D971C9699
:105790001C921C971A961C921A9719961C9219978C
:1057A00018961C92189717961C92179716961C928B
:1057B000169715961C92159714961C92149713968B
:1057C0001C921397E0E3F4E0168A158A1182B287DF
:1057D000A18717821086108289E0838381E0848309
:1057E00085838683EDE1F4E01082138214821582B2
:1057F00016821086178212861186148613861686E4
:105800001586108A1786128A118AEAE0F4E08083EE
:1058100013821482158216821086178212861186D0
:105820001486138616861586108A1786128A118AA0
:10583000E7EFF3E0C083138214821582168210868C
:105840001782128611861486138616861586108A8C
:105850001786128A118A83E1EDE1F4E0AEEBB3E042
:1058600001900D928A95E1F783E1EAE0F4E0A1ED81
:10587000B3E001900D928A95E1F783E1E7EFF3E061
:10588000A4EEB3E001900D928A95E1F7CF910895CF
:10589000CF93DF93CDB7DEB761970FB6F894DEBF35
:1058A0000FBECDBF789484B5826084BD84B581601D
:1058B00084BD85B5826085BD85B5816085BD8091DB
:1058C0006E00816080936E00109281008091810053
:1058D000826080938100809181008160809381004B
:1058E000809180008160809380008091B10084600D
:1058F0008093B1008091B00081608093B00080916E
:1059000091008260809391008091910081608093EA
:105910009100809190008160809390008091A1001F
:1059200082608093A1008091A10081608093A1009A
:105930008091A00081608093A0008091210182600D
:1059400080932101809121018160809321018091C8
:10595000200181608093200180917A00846080938F
:105960007A0080917A00826080937A0080917A0038
:10597000816080937A0080917A00806880937A00B9
:105980001092C100E0913103F091320382E08083F4
:10599000E0912D03F0912E031082E0912F03F091FE
:1059A00030038FEC808310923903E0913503F0913E
:1059B000360386E08083E0913303F09134038081E5
:1059C00080618083E0913303F091340380818860AB
:1059D0008083E0913303F091340380818068808379
:1059E000E0913303F091340380818F7D8083E091D7
:1059F0003904F0913A0413861586148612861186AE
:105A00001086178216821582148213821092370430
:105A10001092380411E0BE01665F7F4F8091390417
:105A200090913A040E941A22882309F475C067E015
:105A3000CE010A960E94021F99898913ECCF8091AA
:105A400037048F5F809337048A85883231F008F0FD
:105A500049C0803111F08232F1F6809138048F5FB5
:105A60008093380480913004811128C080913904DA
:105A700090913A040E94BF1FBE01665F7F4F8091E4
:105A8000390490913A040E94A01F40E064EB809199
:105A9000390490913A040E946C1F809139049091CE
:105AA0003A040E94191F082F8091390490913A04FA
:105AB0000E94BF1F011102C0109330048A858031FB
:105AC000E1F0BE016F5F7F4FCE010A960E94F71F83
:105AD000882331F08D818F3391F058F48F31C1F0EC
